:02000000EF2EE1
:10000800FF00030E8301D6000A08D9008A01700890
:10001800A2007108A1000408A3000C1C32282608BD
:10002800003A031D27281626E2257008E6002E0848
:100038008316A400A5016A259F2566088316A600D5
:10004800A7016E232D282608013A031D2D28B42563
:1000580029260C10B1308F00E0308E008B1C46280A
:100068002708013A031D3B281014A7014528270833
:10007800003A031D45280130A70086018701880141
:1000880010108B102208F0002108F10023088400CA
:0E00980059088A00560E8300FF0E7F0E0900E5
:0800A600FA1FF21300300800FC
:1000AE00710DF80DF90D7408F8027508031C750F23
:1000BE00F902F00DF10D0F30FC00710DF80DF90D78
:1000CE007408701C7028F8027508031C750FF9026D
:1000DE007528F80775080318750FF907F00DF10D5F
:1000EE00FC0B6428701881287408F807750803182B
:0800FE00750FF907000008006E
:10010600FB14FB1F8D28FF30F300F200F100F00016
:08011600FA0DF20CFF300800A5
:10011E007B15FB1F99280130F300F201F101F0016C
:08012E00FA0DF20CFF3008008D
:0E013600F201F101F001F801F30100300800C0
:100144007C18D828FC18A9287C19F728A228A00113
:100154007208031DC9287108F2007008F1007808BC
:10016400F000F801A0157208031DC9287108F200F7
:100174007008F100F001A01120167208031DC928AF
:100184007108F200F101A01572080319EB28200888
:10019400F302031D031CEF280310F21BD828F80DEB
:1001A400F00DF10DF20DF30BCF28EF287B1B701C23
:1001B400F328F81FF328F00A0319F10A0319F20AC5
:1001C400031DF328F20CF10CF00CF30A0319F728C1
:1001D400F3280130FC009B20FA280230FC008F2019
:1001E400FA280430FC005320FA280830FC0083204D
:0401F40000000800FF
:1001F8000E3083120313FD00FD0B002900000800D8
:1002080083120313F801F9011030FC00710DF80D89
:10021800F90D7408F8027508031C750FF902031824
:100228001C297408F80775080318750FF9070310D7
:0A023800F00DF10DFC0B0A2908007F
:1002420044293F3083120313F0006F290630F00077
:100252006F295B30F0006F294F30F0006F29663054
:10026200F0006F296D30F0006F297D30F0006F29AA
:100272000730F0006F297F30F0006F296F30F000F7
:100282006F29F0016F29831603132808003A031916
:1002920022292808013A031927292808023A0319B2
:1002A2002A292808033A03192D292808043A031990
:1002B20030292808053A031933292808063A031970
:1002C20036292808073A031939292808083A031950
:0E02D2003C292808093A03193F29422908004F
:0602E000FB15FF300800D1
:1002E600831203137408003A031D82297508003A25
:1002F600031D8229FF30F0007F30F100DB298312D5
:100306000313FD01F901F8017108700403190034A3
:1003160071087506FA00FA1BFD09FB01F51F9829FD
:10032600F409F509F40A0319F50AF11F9F29F009E2
:10033600F109F00A0319F10A71087504FA00FA1BAB
:10034600B42957207B18C729FD1F0034F009F1098D
:10035600F00A0319F10AF809F909F80A0319F90A62
:100366000034F51FC329F11BBF297108F900700875
:10037600F800F101F001A729F101F001F00A0034BB
:10038600F109F009FB0AA429F80A0319F90A740805
:100396007802031DA72975087902031DA729F9010B
:1003A600F801F00A0319F10AF11FA7290000FF342A
:0203B60008003D
:1003B8007B14FB1FE729F201FA1FFF30F200F1005E
:0A03C800F000FA0DF20CFF300800FF
:1003D200831603131419F7291F301105F100710850
:1003E200003A031DF7290130F000F829F001080056
:0E03F2008312031358088A005708820008007F
:10040000FF3083120313CF00FF30D000FF30D10044
:10041000FF309F01C0309F042D09F0007008831643
:0C0420009F051F179F1783121F14080070
:0E042C008312031358088A0057088200080044
:10043A008312031329088316A00083122A0883163D
:10044A00A10083122B088316A20083122C0883169C
:10045A00A3008312EB01EC016C08123C031D372A3E
:10046A006B088E3C031C432AE921700803193E2AB3
:10047A00432A8312EB0A0319EC0A312A8312123037
:10048A006C02031D4A2A8F306B02031C4F2A7B30F1
:10049A00F0007F2A831611148316111C7E2A8312F8
:1004AA0029082A042B042C0403197D2A8316200800
:1004BA00210422042304031D742A831241088400A0
:1004CA0005308000840A3F08D7004008D800F92187
:1004DA008A110A12013083120313F0007F2A0130B5
:1004EA008316A002031CA102031CA202031CA3027E
:0604FA00512AF001080088
:10050000831203132908EC002A08ED002B08EE00E3
:100510002C08EF008C118316911583128C19B42AC4
:1005200029082A042B042C040319B32A6C086D042F
:100530006E046F04031DA92A410884000330800063
:10054000840A3F08D7004008D800F9218A110A120E
:10055000B42A013083120313EC02031CED02031CC6
:10056000EE02031CEF028D2A831203131308EB0023
:100570002408003A031DBF2A83169116C12A831648
:10058000911283128C118316111683122908EC0024
:100590002A08ED002B08EE002C08EF008C19F42A35
:1005A00029082A042B042C040319F32A6C086D046F
:1005B0006E046F04031DE92A4108840003308000A3
:1005C000840A3F08D7004008D800F9218A110A128E
:1005D000F42A013083120313EC02031CED02031C06
:1005E000EE02031CEF02CE2A831203136B08F00005
:0205F000080001
:0805F200831603131115080024
:1005FA00831203138C11250893002908EB002A089B
:10060A00EC002B08ED002C08EE008316141D342B89
:10061A00831229082A042B042C040319332B6B0890
:10062A006C046D046E04031D2B2B410884000430F6
:10063A008000840A3F08D7004008D800F9218A11AF
:10064A000A12013083120313F0006D2B0130EB0202
:10065A00031CEC02031CED02031CEE020A2B83129C
:10066A002908EB002A08EC002B08ED002C08EE0004
:10067A008C19652B29082A042B042C040319642BD2
:10068A006B086C046D046E04031D5C2B4108840026
:10069A0004308000840A3F08D7004008D800F921B6
:1006AA008A110A12013083120313F0006D2B0130F4
:1006BA00EB02031CEC02031CED02031CEE023D2BB1
:1006CA008316111B6A2BF0016D2B11150230F000F5
:0206DA00080016
:1006DC0083120313B00A0A30F4000030F5008316BD
:1006EC002608F0002708F10073217808F00079083B
:1006FC00F1007008BA000A30F4000030F5008316DF
:10070C002608F0002708F10073217008BE0030089D
:10071C00013A031D9C2B851605123A088316A80076
:10072C0021218312031370088800AB2B3008023A86
:10073C00031DAB2B851205163E088316A80021213C
:0C074C008312031370088800B00108003D
:1007580083160313A601A70180302706F000803016
:100768007002031DB92B0A3026020318C82B26086D
:100778005B3E840000088312CC070318CD0A831659
:10078800A60A0319A70AB02B0A30F4000030F500B6
:1007980083124C08F0004D08F10004217008C200D3
:0607A800CC01CD010800A8
:1007AE00831203137008F800FB01FC019E30F30066
:1007BE00FA01F201F101F0010230FC00A220080062
:1007CE00831203137408003A031D022C7508003AB5
:1007DE00031D022C7608003A031D022C7708003AFE
:1007EE00031D022CFF30F000FF30F1007F30F200CD
:1007FE00FF30F3009D2C8312031377080319912CFD
:10080E0073080319942C720876068039FA00F217D1
:10081E00F617A0017208F8007108FC007008FD00C0
:10082E007408FD027508031C750FFC027608031C84
:10083E00760FF802F801FC01FD01031C2D2C0310AC
:10084E00F20CF10CF00CF80C0130A0007708F3025A
:10085E00031C372C7E302007F3070318972C3C2CF3
:10086E007E302007F307031C9A2C1830FA07FD0D73
:10087E00FC0DF80DF00DF10DF20DA00D7408F00247
:10088E007508031C750FF1027608031C760FF20231
:10089E00760DA004201C552C7D14602C7408F007D6
:1008AE0075080318750FF10776080318760AF20714
:1008BE007D10FA031F307A05031D3E2C7B1B7D1C19
:1008CE00872C0310F00DF10DF20DA00D7408F0023F
:1008DE007508031C750FF1027608031C760FF202E1
:1008EE00760D20040139FD070318FC0A0319F80AD6
:1008FE00031D872CF80CFC0CFD0CF30A0319972C26
:10090E00FA1FF8137808F2007C08F1007D08F00059
:10091E0000309C2C013070219C2C02309B209C2C92
:0E092E00043083209C2C08308F20000008002D
:10093C0083120313FB017308031D77080319F52CAD
:10094C0072087606FA007708F3077E30031CB22C87
:10095C00F3020318F82CB52CF302031CFB2C7208C1
:10096C00F8007108FC007008FD00F817F61703106A
:10097C00F201F101F0011830A0007D1CCF2C74089D
:10098C00F00775080318750FF10776080318760F32
:10099C00F207F20CF10CF00CF80CFC0CFD0C031033
:1009AC00A00BC32CF21BDF2CF80DF00DF10DF20D8A
:1009BC00F3037B1B701CF12CF81FF12CF00A0319AC
:1009CC00F10A0319F20A031DF12CF20CF10CF00CD4
:1009DC00F30A0319F82CFA1FF2130030FD2C013026
:1009EC009B20FD2C02308320FD2C04308F20000036
:0209FC000800F1
:1009FE0083120313FB01FC01FA01730803192C2D5A
:100A0E00FA13F2178630F302F31B102D0319102D73
:100A1E002E2DF309F30A08307302031C1D2DF3006B
:100A2E00F20DF2017308031D0310242D7308031930
:100A3E00242D0310F20CF30B202D7B1B721C2C2D7E
:100A4E00031C2C2DF20A0319332DF101362D7B14C4
:100A5E00FB1F392DF101392D0130FC003B2D0030EB
:100A6E00FC003B2DFF30FC00FC0803193F2DDC2160
:060A7E007208F000080000
:100A8400831203139F01C0309F042D09F0007008E6
:100A940083169F051F179F172608F000F00D70108E
:100AA400F00D7010F00D7010700883129F041F1465
:100AB400FC201F151F1D602D00005C2D1F101E083B
:100AC400F100F00183161E08F0040030F104080060
:100AD4000530831603132402F1000030031C013E89
:100AE4002502F2008030F000803072067002031D8F
:100AF4007E2D7108831266020318862D83128716D1
:100B040007110130BD009E2D053083162407F10026
:100B140025080318013EF20080307206F000803090
:100B24007002031D982D83126608710203189E2D0E
:0A0B3400831287120715BD010800A7
:100B3E00831203133D08013A031DAE2DB10A31088D
:100B4E00643A031DAD2D80308606B101B32D3D08EC
:0A0B5E00003A031DB32D86170800AE
:100B680083120313B20A0319B30AAF0A2F08143AFF
:100B7800031DD42DAF010619CA2D4B302E020318C0
:100B8800CA2DB201B3010530AE07D42D8618D42D75
:100B98002E08233C0318D42DB201B3010530AE0250
:100BA8003308013A031DDA2DF4303206031DE12D16
:0C0BB800B201B301A6010130BC0008002E
:100BC40083120313BB0A3B080A3A031D132E023097
:100BD4008316A600422570088312DA00D723E13079
:100BE400F4007A30F5001C30F6008130F7009E24C2
:100BF4000030F4000030F5002030F6008230F700B9
:100C0400E723FF247008DA0028085B3E840070089C
:100C14008000A80A28080A3A031D112EA801AC2353
:080C2400BB014208F0000800CA
:100C2C0083120313D20A5208143A031D282ED20140
:100C3C00061D232E861C232E282E0130A60087127B
:060C4C00071186130800E9
:100C520083120313CE0A64304E020318362E2E0876
:100C62008316A600A7016E23432E4E08643A031D85
:100C72003E2E880185120512432E4E08C83A031DE6
:060C8200432ECE01080024
:100C880083160313880183128801831685120512BF
:080C9800831285120512080009
:100CA0001D22A23083120313A500FD22FF30831200
:100CB0000313A500FD22831203136708A500FD227C
:040CC000F92208000D
:100CC4008316031387128312871283160711831264
:100CD40007118316861383128613831686148312D0
:100CE40086108316061583120611831606140B1636
:060CF4000B178B10080035
:100CFA000130831203139000B1308F00E0308E0070
:0C0D0A000C1083160C14C0308B00080085
:100D160016228A110A128000840AD70A0319D80AF1
:080D2600F003031D8B2E0800F1
:0E0D2E00831603130515831205150022080015
:100D3C001D22A23083120313A500FD22FF30831263
:100D4C000313A500FD221D22A33083120313A5005B
:100D5C00FD2283120313A40180227008E700F922FC
:080D6C0083126708F000080083
:100D7400E93083120313C9000130CA000030CB00EC
:100D840000301D30C6000230C7000030C8000030FB
:100D9400FF30C300FF30C4000030C5000030803095
:100DA400D3000230D4002430D5000030FD30B4002C
:100DB4000230B5002530B6000030F930B7000230FB
:100DC400B8000030B90000308316141394130716CA
:0A0DD40087153830831294000800E0
:100DDE0022271430831603139300BA2697267D26F6
:100DEE006226442610109E267008E50023307002FD
:100DFE00031C082F65084B3C031C082F6508AE002A
:100E0E000A2F3C30AE0083123C080319122FBC018E
:0A0E1E002E08E70050260A2F132FBC
:100E440026308400093083120313F0001930D700D0
:080E54000730D8008B260800CE
:020E320000348A
:020E3400013487
:020E3600003486
:080E38000034003400340034E2
:020E40000F346D
:020E4200283452
:02400E004A2F37
:00000001FF
